:020000040800F2
:1000000000000220650E00081D0A0008250A0008ED
:100010002D0A0008350A00083D0A0008000000000B
:10002000000000000000000000000000450A000879
:10003000530A000800000000610A00086F0A000867
:10004000B50E0008B50E0008B50E0008B50E000884
:10005000B50E0008B50E0008B50E0008B50E000874
:10006000B50E0008B50E0008B50E0008B50E000864
:10007000B50E0008B50E0008B50E0008B50E000854
:10008000B50E0008B50E0008B50E0008000000000F
:10009000000000000000000000000000B50E000895
:1000A000B50E0008B50E0008B50E0008B50E000824
:1000B000B50E0008B50E0008B50E0008B50E000814
:1000C000B50E0008B50E0008B50E0008B50E000804
:1000D000B50E0008B50E0008B50E000800000000BF
:1000E000B50E0008B50E0008B50E000800000000AF
:1000F000000000000000000000000000B50E000835
:1001000000000000B50E0008B50E0008B50E00088E
:1001100000000000000000000000000000000000DF
:10012000B50E0008B50E0008B50E0008B50E0008A3
:10013000B50E0008000000000000000000000000F4
:100140000000000000000000000000007D0A000820
:10015000B50E0008B50E0008B50E0008B50E000873
:10016000B50E0008B50E00080000000000000000F9
:10017000000000000000000000000000000000007F
:1001800000000000B50E00080000000000000000A4
:08019000B50E0008B50E0008D1
:1001A00010B5054C237833B9044B13B10448AFF3B1
:1001B00000800123237010BD80010020000000009A
:1001C000C4BF000808B5034B1BB103490348AFF394
:1001D000008008BD0000000084010020C4BF0008AA
:1001E000034613F8012B002AFBD1181A0138704777
:1001F00001F0FF01102A2BDB10F0070F08D010F8D8
:10020000013B013A8B422DD010F0070F42B3F6D1DB
:10021000F0B441EA012141EA014122F007047FF0F4
:1002200000070023F0E80256083C85EA010586EA4B
:10023000010685FA47F5A3FA87F586FA47F6A5FA87
:1002400087F68EB9EED1F0BC01F0FF0102F0070293
:1002500032B110F8013B013A83EA010313B1F8D13E
:100260000020704701387047002D06BF354603381F
:10027000073815F0010F07D1013015F4807F02BF58
:10028000013015F4C03F0130F0BC0138704700BFA9
:1002900053B94AB9002908BF00281CBF4FF0FF31ED
:1002A0004FF0FF3000F088B9ADF1080C6DE904CED5
:1002B00000F006F8DDF804E0DDE9022304B0704741
:1002C0002DE9F047089D8E4604468846002B4AD10A
:1002D0008A42174662D9B2FA82F64EB1C6F12003BD
:1002E00001FA06F820FA03F3B74043EA0808B440DD
:1002F0004FEA174E1FFA87FCB8FBFEF1230C0EFBEA
:10030000118843EA084301FB0CF29A4209D9FB1811
:1003100001F1FF3080F0EA809A4240F2E780023932
:100320003B449A1AA3B2B2FBFEF00EFB102243EA42
:10033000024300FB0CFC9C4509D9FB1800F1FF327D
:1003400080F0D6809C4540F2D3803B44023840EA9E
:100350000140A3EB0C0300211DB1F3400022C5E9CD
:100360000032BDE8F0878B4205D90DB1C5E9000127
:1003700000210846F5E7B3FA83F1002946D1734519
:1003800002D3824200F20581841A6EEB030201203F
:100390009046002DE5D0C5E90048E2E7002A00F0CC
:1003A0009080B2FA82F6002E40F0A4808A1A030CE4
:1003B0004FEA174E80B2BCB20121B2FBFEFC0EFB2D
:1003C0001C2243EA024304FB0CF29A4207D9FB18B1
:1003D0000CF1FF3802D29A4200F2E080C4469B1A28
:1003E000B3FBFEF20EFB123340EA034302FB04F4BC
:1003F0009C4207D9FB1802F1FF3002D29C4200F266
:10040000CA8002461B1B42EA0C40A5E7C1F1200648
:100410008B4022FA06F71F430EFA01F420FA06F386
:100420002EFA06FE4FEA1749234300FA01F81FFA95
:1004300087FCBEFBF9F01C0C09FB10EE44EA0E44ED
:1004400000FB0CFEA64502FA01F209D93C1900F1A5
:10045000FF3A80F09C80A64540F2998002383C44E7
:10046000A4EB0E041FFA83FEB4FBF9F309FB13445B
:100470004EEA044403FB0CFCA44508D93C1903F1E3
:10048000FF3E80F08280A4457FD9023B3C4443EA92
:100490000040A4EB0C04A0FB02EC64457346E1466B
:1004A00062D35FD05DB1B8EB030264EB090404FAD8
:1004B00006F622FA01F31E43CC40C5E90064002190
:1004C0004FE7B1FBF2FC010C41EA0E4180B240EA79
:1004D00001423B4638463C46B846BE462026B1FB64
:1004E000F7F1A2EB080241EA0C4166E7014618E782
:1004F00010462CE7C6F120022EFA02F3B740B140B5
:1005000020FA02F24FEA174E0A43B3FBFEF8BCB2E0
:100510000EFB1833110C41EA034108FB04F9B0400B
:1005200089454FEA104380B23ED9791808F1FF3C63
:1005300001D289451FD8A1EB0901B1FBFEF909FBE6
:1005400004F80EFB191192B242EA0142424529D247
:10055000BA1809F1FF31C4D24245C2D2A9F1020151
:100560003A44BEE7F0459DD2BEEB02036CEB070CAC
:100570000138E14696E7A7EB09094944A8F1020CC6
:10058000B1FBFEF909FB04F8DBE773467FE7504651
:1005900066E70846FDE63B44023A33E7ACF1020C5D
:1005A0003B441CE749469CE7A1EB0901C446B1FB6B
:1005B000FEF909FB04F8C4E7704700BF80B588B0B6
:1005C00000AF07F10C0300221A605A609A60DA60EB
:1005D0001A610023BB60304B1B6B2F4A43F0800332
:1005E00013632D4B1B6B03F08003BB60BB680023C0
:1005F0007B60294B1B6B284A43F001031363264B96
:100600001B6B03F001037B607B6800233B60224B84
:100610001B6B214A43F0020313631F4B1B6B03F058
:1006200002033B603B6800224FF440711B4800F01E
:10063000A3FF0022D0211A4800F09EFF4FF4407320
:10064000FB6001233B6100237B610023BB6107F159
:100650000C031946114800F0F3FD0823FB6000234A
:100660003B6100237B6107F10C0319460C4800F045
:10067000E7FDD023FB6001233B6100237B61002366
:10068000BB6107F10C031946054800F0D9FD00BF16
:100690002037BD4680BD00BF003802400000024048
:1006A0000004024080B582B000AF78607868FFF740
:1006B00097FD03461946786807F0DCF90A2000F038
:1006C0006DFC00BF0837BD4680BD000080B586B018
:1006D00002AF00F0F1FB00F069F8FFF76FFF00F0E8
:1006E000F3F800F08BFA00F047FB07F0FBF829481D
:1006F0000AF0B4FE07F01AFE0623FB7226480AF041
:10070000ADFEFB7A4FF47A41184608F0B7FD234856
:100710000AF0A4FEFB7A18460AF0B2F920480AF063
:100720009DFE08F01BFB1F480AF098FE09F0A2FF8F
:100730001D480AF093FE0AF0C1F90023FB60002374
:100740003B7100237B710023BB714FF6FF7008F0F3
:1007500085FE0AF007F80AF019F90AF0D9F800F056
:1007600011FC0246FB68D31AB3F57A7FF3D300F08D
:1007700009FCF860BB790133DBB2BB711F23019325
:100780003B46009319237E220021002009F0F8FA4D
:10079000E1E700BFDCBF0008FCBF00080CC0000898
:1007A00020C0000830C000084CC0000880B594B0DC
:1007B00000AF07F120033022002118460AF02EFF77
:1007C00007F10C0300221A605A609A60DA601A611D
:1007D0000023BB60334B1B6C324A43F080531364DD
:1007E000304B1B6C03F08053BB60BB6800237B6005
:1007F0002D4B1B682C4A43F4404313602A4B1B6863
:1008000003F440437B607B6801233B624FF48033F9
:100810007B620223BB634FF48003FB6310233B64C2
:100820007B237B640223BB640423FB6407F1200366
:10083000184602F00DF90346002B03D094211B4803
:1008400000F038F80F23FB6002233B6100237B613B
:100850004FF48053BB610023FB6107F10C030321BC
:10086000184602F06DFB0346002B03D0A2210F486F
:1008700000F020F802F010FD03460D4AA2FB03230E
:100880009B09184600F0B3FC042000F0BDFC0022D8
:1008900000214FF0FF3000F080FC00BF5037BD4614
:1008A00080BD00BF003802400070004074C00008E6
:1008B000D34D621080B483B000AF7860396072B6F7
:1008C00000BF00BFFDE7000080B500AF184B194A1C
:1008D0001A60174B4FF482725A60154B00229A60CF
:1008E000134B0022DA60124B00221A61104B0022D7
:1008F0005A610F4B4FF400729A610D4B1022DA616E
:100900000B4B00221A620A4B00225A62084B00224B
:100910009A62074B0A22DA62054802F0F1FC0346AC
:10092000002B03D036210448FFF7C4FF00BF80BD71
:100930009C0100200030014088C0000880B58AB0CA
:1009400000AF786007F1140300221A605A609A60C1
:10095000DA601A617B681B68194A93422BD1002325
:100960003B61184B5B6C174A43F480535364154B3F
:100970005B6C03F480533B613B690023FB60114BCC
:100980001B6B104A43F0010313630E4B1B6B03F008
:100990000103FB60FB68E0237B610223BB61002352
:1009A000FB6103233B6205237B6207F114031946B5
:1009B000054800F045FC00BF2837BD4680BD00BF9C
:1009C00000300140003802400000024080B483B093
:1009D00000AF00237B60104B5B6C0F4A43F48043F5
:1009E00053640D4B5B6C03F480437B607B68002396
:1009F0003B60094B1B6C084A43F080531364064B61
:100A00001B6C03F080533B603B6800BF0C37BD4656
:100A10005DF8047B704700BF0038024080B400AF2F
:100A200000BFFDE780B400AF00BFFDE780B400AFBA
:100A300000BFFDE780B400AF00BFFDE780B400AFAA
:100A400000BFFDE780B400AF00BFBD465DF8047B8A
:100A5000704780B400AF00BFBD465DF8047B7047AF
:100A600080B400AF00BFBD465DF8047B704780B521
:100A700000AF00F073FA00BF80BD000080B500AF8A
:100A8000024800F0D6FE00BF80BD00BF6C170020FA
:100A900080B586B000AFF860B9607A6000237B61F2
:100AA0000AE0AFF300800146BB685A1CBA60CAB2C4
:100AB0001A707B6901337B617A697B689A42F0DB4B
:100AC0007B6818461837BD4680BD80B586B000AF3C
:100AD000F860B9607A6000237B6109E0BB685A1C4A
:100AE000BA601B781846AFF300807B6901337B61E5
:100AF0007A697B689A42F1DB7B6818461837BD46F5
:100B000080BD80B483B000AF78604FF0FF331846EB
:100B10000C37BD465DF8047B704780B483B000AFEE
:100B2000786039603B684FF400525A6000231846E1
:100B30000C37BD465DF8047B704780B483B000AFCE
:100B40007860012318460C37BD465DF8047B70477A
:100B500080B485B000AFF860B9607A6000231846B1
:100B60001437BD465DF8047B7047000080B586B041
:100B700000AF7860144A154BD31A7B617B693B61E7
:100B8000134B1B68002B02D1114B124A1A60104BF9
:100B90001A687B6813443A699A4207D20AF09CFDAE
:100BA00003460C221A604FF0FF3309E0084B1B6824
:100BB000FB60074B1A687B681344054A1360FB68A7
:100BC00018461837BD4680BD000002200004000012
:100BD000F4010020A022002080B400AF064BD3F81F
:100BE0008830054A43F47003C2F8883000BFBD4620
:100BF0005DF8047B704700BF00ED00E080B58AB06F
:100C000000AF07F1200300221A605A603B1D00224A
:100C10001A605A609A60DA601A615A619A61254BCB
:100C2000254A1A60234B00225A60224B00229A6008
:100C3000204B4FF6FF72DA601E4B00221A611D4BEB
:100C400000229A611B4802F0E4FB0346002B03D00C
:100C500033211A48FFF72EFE00233B6200237B62FC
:100C600007F120031946134802F0CCFF0346002B7E
:100C700003D039211148FFF71DFE60237B6000235C
:100C8000BB600023FB6000237B613B1D04221946EF
:100C9000084802F0BDFC0346002B03D04121074861
:100CA000FFF708FE034800F02DF800BF2837BD46C7
:100CB00080BD00BFF8010020000400409CC0000877
:100CC00080B485B000AF78607B681B680B4A9342A4
:100CD0000DD10023FB600A4B1B6C094A43F0020351
:100CE0001364074B1B6C03F00203FB60FB6800BF3F
:100CF0001437BD465DF8047B704700BF0004004018
:100D00000038024080B588B000AF786007F10C036E
:100D100000221A605A609A60DA601A617B681B6868
:100D2000124A93421DD10023BB60114B1B6B104A2A
:100D300043F0020313630E4B1B6B03F00203BB6013
:100D4000BB682023FB6002233B6100237B610023FF
:100D5000BB610223FB6107F10C031946054800F053
:100D60006FFA00BF2037BD4680BD00BF00040040C1
:100D7000003802400004024080B500AF124B134A15
:100D80001A60114B4FF4E1325A600F4B00229A6007
:100D90000D4B0022DA600C4B00221A610A4B0C2228
:100DA0005A61094B00229A61074B0022DA6106481A
:100DB00002F096FF0346002B03D033210448FFF7CF
:100DC00079FD00BF80BD00BF40020020004400400C
:100DD000B0C0000880B58AB000AF786007F1140396
:100DE00000221A605A609A60DA601A617B681B6898
:100DF000194A93422BD100233B61184B1B6C174AB5
:100E000043F400331364154B1B6C03F400333B6154
:100E10003B690023FB60114B1B6B104A43F001033D
:100E200013630E4B1B6B03F00103FB60FB680C2389
:100E30007B610223BB610023FB6103233B62072329
:100E40007B6207F114031946054800F0F9F900BF69
:100E50002837BD4680BD00BF004400400038024036
:100E600000000240DFF834D0FFF7B6FE0C480D4911
:100E70000D4A002302E0D458C4500433C4188C42F5
:100E8000F9D30A4A0A4C002301E013600432A2425B
:100E9000FBD30AF027FCFFF719FC70470000022083
:100EA0000000002080010020F805010880010020DA
:100EB0009C220020FEE7000080B500AF0E4B1B68AF
:100EC0000D4A43F4007313600B4B1B680A4A43F44A
:100ED00080631360084B1B68074A43F480731360F8
:100EE000032000F04FF90F2000F008F8FFF76EFD27
:100EF0000023184680BD00BF003C024080B582B090
:100F000000AF7860124B1A68124B1B7819464FF4E9
:100F10007A73B3FBF1F3B2FBF3F3184600F067F911
:100F20000346002B01D001230EE07B680F2B0AD86B
:100F3000002279684FF0FF3000F02FF9064A7B68F5
:100F40001360002300E0012318460837BD4680BD2A
:100F500000000020080000200400002080B400AF42
:100F6000064B1B781A46064B1B681344044A136051
:100F700000BFBD465DF8047B704700BF080000203D
:100F80008802002080B400AF034B1B681846BD46A2
:100F90005DF8047B704700BF8802002080B584B0F4
:100FA00000AF7860FFF7EEFFB8607B68FB60FB681E
:100FB000B3F1FF3F05D00A4B1B781A46FB68134478
:100FC000FB6000BFFFF7DEFF0246BB68D31AFA687A
:100FD0009A42F7D800BF00BF1037BD4680BD00BFA2
:100FE0000800002080B485B000AF78607B6803F013
:100FF0000703FB600C4BDB68BB60BA684FF6FF036E
:101000001340BB60FB681A02BB68134343F0BF6325
:1010100043F40033BB60044ABB68D36000BF14379D
:10102000BD465DF8047B704700ED00E080B400AF82
:10103000044BDB681B0A03F007031846BD465DF846
:10104000047B704700ED00E080B483B000AF03463E
:10105000FB7197F90730002B0BDBFB7903F01F02C4
:10106000074997F907305B09012000FA02F241F8BD
:10107000232000BF0C37BD465DF8047B704700BFDE
:1010800000E100E080B483B000AF03463960FB713B
:1010900097F90730002B0ADB3B68DAB20C4997F965
:1010A00007301201D2B20B4483F800230AE03B68F8
:1010B000DAB20849FB7903F00F03043B1201D2B204
:1010C0000B441A7600BF0C37BD465DF8047B7047B1
:1010D00000E100E000ED00E080B489B000AFF8600E
:1010E000B9607A60FB6803F00703FB61FB69C3F139
:1010F0000703042B28BF0423BB61FB690433062BC1
:1011000002D9FB69033B00E000237B614FF0FF3213
:10111000BB6902FA03F3DA43BB681A407B699A4061
:101120004FF0FF317B6901FA03F3D9437B680B4031
:10113000134318462437BD465DF8047B7047000012
:1011400080B582B000AF78607B68013BB3F1807FEF
:1011500001D301230FE00A4A7B68013B53600F2152
:101160004FF0FF30FFF78EFF054B00229A60044BD3
:1011700007221A60002318460837BD4680BD00BF0D
:1011800010E000E080B582B000AF78607868FFF7CB
:1011900029FF00BF0837BD4680BD80B586B000AFCF
:1011A0000346B9607A60FB7300237B61FFF73EFF63
:1011B00078617A68B9687869FFF78EFF024697F917
:1011C0000F3011461846FFF75DFF00BF1837BD46C8
:1011D00080BD80B582B000AF0346FB7197F9073040
:1011E0001846FFF731FF00BF0837BD4680BD80B508
:1011F00082B000AF78607868FFF7A2FF0346184618
:101200000837BD4680BD000080B483B000AF786071
:101210007B68042B06D1094B1B68084A43F0040382
:10122000136005E0054B1B68044A23F004031360B8
:1012300000BF0C37BD465DF8047B704710E000E04E
:1012400080B489B000AF7860396000237B610023EF
:101250003B610023BB610023FB6159E10122FB6973
:1012600002FA03F37B613B681B687A6913403B61B8
:101270003A697B699A4240F048813B685B6803F0B9
:101280000303012B05D03B685B6803F00303022BCB
:1012900030D17B689B68BB61FB695B00032202FA6B
:1012A00003F3DB43BA691340BB613B68DA68FB694F
:1012B0005B0002FA03F3BA691343BB617B68BA6946
:1012C0009A607B685B68BB610122FB6902FA03F3E9
:1012D000DB43BA691340BB613B685B681B0903F0E1
:1012E0000102FB6902FA03F3BA691343BB617B682D
:1012F000BA695A603B685B6803F00303032B17D09D
:101300007B68DB68BB61FB695B00032202FA03F3C5
:10131000DB43BA691340BB613B689A68FB695B00B9
:1013200002FA03F3BA691343BB617B68BA69DA60F6
:101330003B685B6803F00303022B23D1FB69DA08E7
:101340007B68083253F82230BB61FB6903F0070366
:101350009B000F2202FA03F3DB43BA691340BB611F
:101360003B681A69FB6903F007039B0002FA03F369
:10137000BA691343BB61FB69DA087B680832B96953
:1013800043F822107B681B68BB61FB695B0003228A
:1013900002FA03F3DB43BA691340BB613B685B6845
:1013A00003F00302FB695B0002FA03F3BA6913431B
:1013B000BB617B68BA691A603B685B6803F44033C1
:1013C000002B00F0A2800023FB60574B5B6C564A59
:1013D00043F480435364544B5B6C03F48043FB60E1
:1013E000FB68524AFB699B08023352F82330BB6109
:1013F000FB6903F003039B000F2202FA03F3DB43B4
:10140000BA691340BB617B68494A934219D07B6833
:10141000484A934213D07B68474A93420DD07B6879
:10142000464A934207D07B68454A934201D1042340
:1014300008E0072306E0032304E0022302E001237F
:1014400000E00023FA6902F0030292009340BA69B7
:101450001343BB613549FB699B080233BA6941F804
:101460002320384B9B68BB613B69DB43BA6913405F
:10147000BB613B685B6803F48013002B03D0BA693F
:101480003B691343BB612F4ABB6993602D4BDB68FB
:10149000BB613B69DB43BA691340BB613B685B6876
:1014A00003F40013002B03D0BA693B691343BB61FB
:1014B000244ABB69D360234B5B68BB613B69DB4358
:1014C000BA691340BB613B685B6803F40033002BCF
:1014D00003D0BA693B691343BB611A4ABB695360C5
:1014E000184B1B68BB613B69DB43BA691340BB61A6
:1014F0003B685B6803F48033002B03D0BA693B6917
:101500001343BB610F4ABB691360FB690133FB6185
:10151000FB690F2B7FF6A2AE00BF00BF2437BD468C
:101520005DF8047B704700BF00380240003801407E
:10153000000002400004024000080240000C02408B
:1015400000100240003C014080B485B000AF7860DC
:101550000B467B807B681A697B881340002B02D086
:101560000123FB7301E00023FB73FB7B1846143758
:10157000BD465DF8047B704780B483B000AF7860EF
:101580000B467B8013467B707B78002B03D07A88D8
:101590007B689A6103E07B881A047B689A6100BFCC
:1015A0000C37BD465DF8047B704780B586B002AF4E
:1015B00078607B68002B01D1012301E17B681B6807
:1015C000BB607B6893F89534DBB2002B06D17B6857
:1015D000002283F89424786806F094FB7B68032249
:1015E00083F89524BB68B3F1A04F02D17B68002239
:1015F0009A717B681B68184602F04DFF7B6818687B
:101600007B681A7C8DF8002004330ECB02F02CFE90
:101610000346002B05D07B68022283F89524012322
:10162000CEE07B681B680021184602F045FF0346A8
:10163000002B05D07B68022283F895240123BFE0AC
:101640000023FB734AE0FA7B79681346DB001344FE
:101650009B000B44153301221A70FA7B79681346FC
:10166000DB0013449B000B441433FA7B1A70FA7BA3
:10167000FB7B98B279681346DB0013449B000B4454
:101680002E3302461A80FA7B79681346DB00134436
:101690009B000B44183300221A70FA7B79681346BA
:1016A000DB0013449B000B441C3300221A60FA7BBE
:1016B00079681346DB0013449B000B44203300225F
:1016C0001A60FA7B79681346DB0013449B000B44D5
:1016D000243300221A60FB7B0133FB737B681B7988
:1016E000FA7B9A42AFD30023FB7344E0FA7B79681C
:1016F0001346DB0013449B000B4403F255230022E6
:101700001A70FA7B79681346DB0013449B000B4484
:1017100003F51573FA7B1A70FA7B79681346DB00C0
:1017200013449B000B4403F5167300221A70FA7BD6
:1017300079681346DB0013449B000B4403F51773D1
:1017400000221A60FA7B79681346DB0013449B0081
:101750000B4403F5187300221A60FA7B796813466C
:10176000DB0013449B000B4403F5197300221A603D
:10177000FB7B0133FB737B681B79FA7B9A42B5D301
:101780007B6818687B681A7C8DF8002004330ECBC8
:1017900002F0DEFE0346002B05D07B68022283F8B0
:1017A000952401230CE07B6800225A747B68012297
:1017B00083F895247B681B68184603F028FF0023F4
:1017C00018461037BD4680BD80B584B000AF786044
:1017D0007B681B68FB607B6893F89434012B01D114
:1017E000022322E07B68012283F89424FB68DB68F3
:1017F00003F04003002B09D07B685B7B012B05D1F4
:10180000FB689B6B43F48032FB689A637B681B68C0
:10181000184602F02FFE7B681B68184603F0D6FEC0
:101820007B68002283F89424002318461037BD46B5
:1018300080BD90B58DB000AF78607B681B683B625F
:101840003B6AFB617B681B68184603F094FF034604
:10185000002B40F08C847B681B68184603F0F8FE70
:101860000346002B00F08284FB6903F500639B684C
:101870001B0AC3F30D027B68C3F8D4247B681B6882
:10188000184603F0E5FE034603F00203022B07D1DE
:101890007B681B685A697B681B6802F002025A6108
:1018A0007B681B68184603F0D3FE034603F0100361
:1018B000102B61D17B681B689A697B681B6822F0DA
:1018C00010029A613B6A1B6ABB61BB6903F00F029D
:1018D0001346DB0013449B0003F514737A6813442A
:1018E00004337B61BB6903F4F013B3F5802F24D17B
:1018F000BA6947F6F0731340002B35D07B69D9687D
:10190000BB691B099BB2C3F30A039BB21A46386A30
:1019100003F00AFD7B69DA68BB691B09C3F30A039C
:101920001A447B69DA607B695A69BB691B09C3F396
:101930000A031A447B695A6116E0BB6903F4F01389
:10194000B3F5402F10D17B6803F29C43082219465F
:10195000386A03F0E9FC7B695A69BB691B09C3F368
:101960000A031A447B695A617B681B689A697B6821
:101970001B6842F010029A617B681B68184603F0EE
:1019800067FE034603F40023B3F5002F40F0A78061
:1019900000237B627B681B68184603F06CFEB8620C
:1019A00099E0BB6A03F00103002B00F08E807B6896
:1019B0001B687A6AD2B21146184603F090FE38616D
:1019C0003B6903F00103002B0CD07B6A5A01FB69D1
:1019D000134403F530631A4601239360796A7868EB
:1019E00000F0A4FE3B6903F00803002B0CD07B6AD7
:1019F0005A01FB69134403F530631A4608239360C8
:101A0000796A786800F07AFF3B6903F01003002BD5
:101A100008D07B6A5A01FB69134403F530631A4608
:101A2000102393603B6903F00203002B30D03B6A24
:101A30005B6903F08003802B09D1FB6903F5006328
:101A40005B68FA6902F5006243F4806353607A6A66
:101A50001346DB0013449B0003F514737A681344A8
:101A600004337B617B69DB78012B08D17B69002221
:101A7000DA707B6ADBB21946786806F043FA7B6A53
:101A80005A01FB69134403F530631A46022393603D
:101A90003B6903F02003002B08D07B6A5A01FB69E5
:101AA000134403F530631A46202393603B6903F423
:101AB0000053002B09D07B6A5A01FB69134403F5DC
:101AC00030631A464FF4005393607B6A01337B62A4
:101AD000BB6A5B08BB62BB6A002B7FF462AF7B68AA
:101AE0001B68184603F0B4FD034603F48023B3F5E6
:101AF000802F40F0DB807B681B68184603F0D5FD23
:101B0000B86200237B62CDE0BB6A03F00103002BC7
:101B100000F0C2807B681B687A6AD2B21146184610
:101B200003F0FBFD38613B6903F00103002B57D044
:101B30007B6A03F00F03012202FA03F3FB60FB69E7
:101B400003F500635A6BFB68DB43F96901F500613B
:101B500013404B637B6A5A01FB69134403F510631E
:101B60001A46012393607B689B79012B32D17968F7
:101B70007A6A1346DB0013449B000B442033196838
:101B800078687A6A1346DB0013449B0003441C33D5
:101B90001B68194478687A6A1346DB0013449B007B
:101BA0000344203319607B6A002B13D179687A6A69
:101BB0001346DB0013449B000B4424331B68002BAB
:101BC00008D17B6818687B6803F29C431A460121A0
:101BD00003F002FE7B6ADBB21946786806F013F95F
:101BE0003B6903F00803002B08D07B6A5A01FB69AC
:101BF000134403F510631A46082393603B6903F00E
:101C00001003002B08D07B6A5A01FB69134403F5CB
:101C100010631A46102393603B6903F04003002BC6
:101C200008D07B6A5A01FB69134403F510631A4616
:101C3000402393603B6903F00203002B23D0796AB1
:101C4000386A02F0E9FD7A6A1346DB0013449B0010
:101C500010337A68134404337B617B69DB78012B92
:101C600008D17B690022DA707B6ADBB2194678689A
:101C700006F05AF97B6A5A01FB69134403F51063B5
:101C80001A46022393603B6903F08003002B03D0C4
:101C9000796A786800F0BDFC7B6A01337B62BB6ABD
:101CA0005B08BB62BB6A002B7FF42EAF7B681B68AE
:101CB000184603F0CDFC034603F00043B3F1004F98
:101CC00022D1FB6903F500635B68FA6902F50062E3
:101CD00023F0010353607B6893F8CC34012B08D1C7
:101CE0007B68002283F8CC240021786800F0A4FEF1
:101CF00002E0786806F0F8F87B681B685A697B6830
:101D00001B6802F000425A617B681B68184603F0AA
:101D10009FFC034603F40063B3F5006F12D1FB6927
:101D200003F500639B6803F00103012B02D178687F
:101D300006F0B4F87B681B685A697B681B6802F47C
:101D400000625A617B681B68184603F081FC0346F9
:101D500003F48053B3F5805F40F0B780FB6903F56F
:101D600000635B68FA6902F5006223F001035360C7
:101D70007B681B681021184602F04EFD0023FB62B1
:101D800046E0FB6A5A01FB69134403F510631A46E7
:101D90004FF67F339360FB6A5A01FB69134403F5E6
:101DA00010631B68FA6A5101FA690A4402F510626D
:101DB00023F400131360FB6A5A01FB69134403F513
:101DC00030631A464FF67F339360FB6A5A01FB6912
:101DD000134403F530631B68FA6A5101FA690A4437
:101DE00002F5306223F400131360FB6A5A01FB69A9
:101DF000134403F530631B68FA6A5101FA690A4417
:101E000002F5306243F000631360FB6A0133FB624A
:101E10007B681B791A46FB6A9342B2D3FB6903F5D0
:101E20000063DB69FA6902F5006243F00113D361D4
:101E30007B68DB7B002B16D0FB6903F50063D3F8CE
:101E40008430FA6902F5006243F00B03C2F8843073
:101E5000FB6903F500635B6CFA6902F5006243F00D
:101E60000B03536415E0FB6903F500635B69FA69D2
:101E700002F5006243F4005343F02B035361FB6906
:101E800003F500631B69FA6902F5006243F00B0376
:101E90001361FB6903F500631B68FA6902F50062D0
:101EA00023F4FE6313607B6818687B6899797B680C
:101EB00003F29C431A4603F08FFC7B681B685A6947
:101EC0007B681B6802F480525A617B681B68184665
:101ED00003F0BEFB034603F40053B3F5005F23D1C8
:101EE0007B681B68184603F054FC7B681B68184627
:101EF00002F00BFD03461A467B68DA717B681C68AA
:101F000001F0CAF901467B68DB791A46204602F0E7
:101F10000FFA786805F0A0FF7B681B685A697B6838
:101F20001B6802F400525A617B681B68184603F074
:101F30008FFB034603F00803082B0AD1786805F0ED
:101F40007CFF7B681B685A697B681B6802F008028B
:101F50005A617B681B68184603F07AFB034603F05E
:101F60008003802B23D13B6A9B6923F080023B6A6C
:101F70009A6101237B6214E079687A6A1346DB0078
:101F800013449B000B4403F257231B78012B05D10C
:101F90007B6ADBB21946786800F00AFB7B6A013382
:101FA0007B627B681B791A467B6A9342E4D37B6829
:101FB0001B68184603F04CFB034603F48013B3F58B
:101FC000801F3CD101237B622BE07B6A5A01FB69B5
:101FD000134403F510631B68BB6179687A6A134682
:101FE000DB0013449B000B4418331B78012B15D1E5
:101FF000BB69002B12DA79687A6A1346DB00134456
:102000009B000B44173301221A707B6ADBB263F02A
:102010007F03DBB21946786800F0CAFA7B6A0133A5
:102020007B627B681B791A467B6A9342CDD37B68BF
:102030001B685A697B681B6802F480125A617B68CE
:102040001B68184603F004FB034603F40013B3F5C2
:10205000001F56D101237B6245E07B6A5A01FB6970
:10206000134403F530631B68BB6179687A6A1346D1
:10207000DB0013449B000B4403F516731B78012B04
:102080002ED1BB69002B2BDABB691A0C7B68D3F805
:10209000D434534003F00103002B21D179687A6ACC
:1020A0001346DB0013449B000B4403F25723012229
:1020B0001A703B6A9B6943F080023B6A9A613B6AF3
:1020C0005B6903F08003002B0AD1FB6903F5006311
:1020D0005B68FA6902F5006243F40073536008E03C
:1020E0007B6A01337B627B681B791A467B6A934269
:1020F000B3D37B681B685A697B681B6802F40012C3
:102100005A617B681B68184603F0A2FA034603F085
:102110008043B3F1804F0AD1786805F017FF7B68E0
:102120001B685A697B681B6802F080425A617B68B1
:102130001B68184603F08CFA034603F00403042BD3
:1021400015D17B681B685B68BB61BB6903F0040346
:10215000002B02D0786805F007FF7B681B68596880
:102160007B681B68BA690A435A6000E000BF3437D5
:10217000BD4690BD80B582B000AF78600B46FB7065
:102180007B6893F89434012B01D1022312E07B6821
:10219000012283F894247B68FA785A747B681B6860
:1021A000FA781146184603F0EBF97B68002283F8B1
:1021B0009424002318460837BD4680BD80B584B0FE
:1021C00000AF7860084611461A460346FB700B467E
:1021D0003B801346BB700023FB7297F90330002B42
:1021E0000FDAFB7803F00F021346DB0013449B0069
:1021F00010337A6813440433FB60FB6801225A7081
:102200000FE0FB7803F00F021346DB0013449B0042
:1022100003F514737A6813440433FB60FB680022EF
:102220005A70FB7803F00F03DAB2FB681A703B8830
:10223000C3F30A02FB689A60FB68BA781A71FB68FC
:102240005B78002B04D0FB681B781A46FB685A8326
:10225000BB78022B02D1FB6800225A717B6893F88D
:102260009434012B01D102230EE07B68012283F814
:1022700094247B681B68F968184602F06BFB7B6846
:10228000002283F89424FB7A18461037BD4680BD9F
:1022900080B584B000AF78600B46FB7097F90330CF
:1022A000002B0FDAFB7803F00F021346DB00134418
:1022B0009B0010337A6813440433FB60FB680122EF
:1022C0005A700FE0FB7803F00F021346DB00134453
:1022D0009B0003F514737A6813440433FB60FB68B6
:1022E00000225A70FB7803F00F03DAB2FB681A7011
:1022F0007B6893F89434012B01D102230EE07B68B4
:10230000012283F894247B681B68F968184602F060
:10231000A9FB7B68002283F8942400231846103719
:10232000BD4680BD80B586B000AFF8607A603B6086
:102330000B46FB72FB7A03F00F021346DB001344DB
:102340009B0003F51473FA68134404337B617B69C3
:102350007A68DA607B693A681A617B6900225A619F
:102360007B6900225A70FB7A03F00F03DAB27B69B3
:102370001A70FB689B79012B02D17A687B69DA615C
:10238000FB681868FB689B791A46796902F046FC7D
:10239000002318461837BD4680BD80B483B000AF17
:1023A00078600B46FB70FB7803F00F0279681346E8
:1023B000DB0013449B000B4403F51A731B6818469B
:1023C0000C37BD465DF8047B704780B586B000AF22
:1023D000F8607A603B600B46FB72FB7A03F00F02F9
:1023E0001346DB0013449B001033FA681344043394
:1023F0007B617B697A68DA607B693A681A617B691C
:1024000000225A617B6901225A70FB7A03F00F03A4
:10241000DAB27B691A70FB689B79012B02D17A686A
:102420007B69DA61FB681868FB689B791A467969F1
:1024300002F0F4FB002318461837BD4680BD80B576
:1024400084B000AF78600B46FB70FB7803F00F039D
:102450007A681279934201D901234FE097F903304A
:10246000002B0FDAFB7803F00F021346DB00134456
:102470009B0010337A6813440433FB60FB6801222D
:102480005A700DE0FA781346DB0013449B0003F505
:1024900014737A6813440433FB60FB6800225A709B
:1024A000FB6801229A70FB7803F00F03DAB2FB6835
:1024B0001A707B6893F89434012B01D102231DE03C
:1024C0007B68012283F894247B681B68F9681846AE
:1024D00002F082FFFB7803F00F03002B09D17B6829
:1024E00018687B6899797B6803F29C431A4603F06D
:1024F00073F97B68002283F8942400231846103770
:10250000BD4680BD80B584B000AF78600B46FB70DF
:10251000FB7803F00F037A681279934201D9012303
:1025200042E097F90330002B0FDAFB7803F00F023B
:102530001346DB0013449B0010337A6813440433C2
:10254000FB60FB6801225A700FE0FB7803F00F027A
:102550001346DB0013449B0003F514737A6813449D
:102560000433FB60FB6800225A70FB6800229A70FB
:10257000FB7803F00F03DAB2FB681A707B6893F8FC
:102580009434012B01D102230EE07B68012283F8F1
:1025900094247B681B68F968184602F08BFF7B68FF
:1025A000002283F89424002318461037BD4680BDCE
:1025B00080B584B000AF78600B46FB7097F90330AC
:1025C000002B0CDAFB7803F00F021346DB001344F8
:1025D0009B0010337A6813440433FB600CE0FB78F3
:1025E00003F00F021346DB0013449B0003F5147342
:1025F0007A6813440433FB607B681B68F9681846EB
:1026000002F0AAFD0346FB72FB7A18461037BD465E
:1026100080BD80B58AB002AF786039607B681B6886
:102620007B617B693B613A681346DB0013449B0086
:1026300010337A6813440433FB60FB685A69FB6803
:102640001B699A4201D901236BE0FB681A69FB6898
:102650005B69D31AFB61FB689B68FA699A4202D9ED
:10266000FB689B68FB61FB6903339B08BB612AE045
:10267000FB681A69FB685B69D31AFB61FB689B689E
:10268000FA699A4202D9FB689B68FB61FB690333D4
:102690009B08BB61FB68D9683B68DAB2FB6998B2FA
:1026A0007B689B7900930346786902F0FFFDFB6825
:1026B000DA68FB691A44FB68DA60FB685A69FB69EF
:1026C0001A44FB685A613B685A013B69134403F59D
:1026D00010639B699BB2BA699A4209D8FB685A6930
:1026E000FB681B699A4203D2FB681B69002BBFD1B0
:1026F000FB681A69FB685B699A4211D83B6803F072
:102700000F03012202FA03F3BB603B6903F5006388
:102710005A6BBB68DB43396901F5006113404B63B9
:10272000002318462037BD4680BD000080B588B024
:1027300000AF786039607B681B68FB61FB69BB6137
:10274000FB693C3304331B687B613B685A01BB69FE
:10275000134403F530639B683B617B689B79012BD5
:102760007BD13B6903F00803002B15D07B69614ADC
:10277000934240F2B9803B6903F40043002B00F020
:10278000B3803B685A01BB69134403F530631A46B2
:102790004FF400439360A7E03B6903F02003002B54
:1027A00009D03B685A01BB69134403F530631A46EC
:1027B0002023936098E03B6903F02803002B40F04E
:1027C00093807B694B4A93420FD93B6903F40043E2
:1027D000002B0AD03B685A01BB69134403F53063F0
:1027E0001A464FF4004393607EE03A681346DB00DC
:1027F00013449B0003F514737A6813440433FB609D
:10280000FB681A6A3B685901BB690B4403F53063E6
:102810001B69C3F31203D21AFB685A613B68002B91
:1028200014D1FB681B69002B09D17B6818687B6891
:1028300003F29C431A46012102F0CEFF06E0FB683A
:10284000DA68FB685B691A44FB68DA603B68DBB2F4
:102850001946786805F0BCFA46E07B69264A93423F
:1028600024D13B6903F40043002B0AD03B685A0192
:10287000BB69134403F530631A464FF40043936079
:1028800032E03B6903F02003002B08D03B685A017B
:10289000BB69134403F530631A46202393603B68F9
:1028A000DBB21946786805F093FA1DE03B68002B0F
:1028B00014D179683A681346DB0013449B000B443B
:1028C00003F519731B68002B08D17B6818687B68B7
:1028D00003F29C431A46002102F07EFF3B68DBB204
:1028E0001946786805F074FA002318462037BD466B
:1028F00080BD00BF0A30544F0A31544F80B586B0B6
:1029000000AF786039607B681B687B617B693B61E5
:102910007B693C3304331B68FB603B685A013B69AD
:10292000134403F530639B68BB60FB68154A934210
:102930000ED9BB6803F40043002B09D03B685A0151
:102940003B69134403F530631A464FF40043936028
:10295000786805F02BFAFB680A4A93420CD97B6829
:102960009B79012B08D17B6818687B6803F29C4334
:102970001A46012102F030FF002318461837BD46E1
:1029800080BD00BF0A30544F80B485B000AF78607E
:102990000B46FB7013463B807B681B685B6ABB6021
:1029A000FB78002B07D13B8819047B681B68BA6849
:1029B0000A439A6228E07B681B689B6A1B0CBA6812
:1029C0001344BB600023FB730DE07B681A68FB7B3C
:1029D00040339B0013445B681B0CBA681344BB6014
:1029E000FB7B0133FB73FA7BFB78013B9A42ECD310
:1029F0003B8818047B681968FB78013BBA6802437E
:102A000040339B000B445A60002318461437BD46E0
:102A10005DF8047B704780B483B000AF78600B46EC
:102A20007B807B681B687A885A62002318460C37C3
:102A3000BD465DF8047B704780B483B000AF78601A
:102A40000B46FB7000BF0C37BD465DF8047B70473A
:102A500080B586B000AF78607B68002B01D1012380
:102A600067E27B681B6803F00103002B75D0884B7D
:102A70009B6803F00C03042B0CD0854B9B6803F080
:102A80000C03082B12D1824B5B6803F48003B3F56F
:102A9000800F0BD17E4B1B6803F40033002B5BD0FF
:102AA0007B685B68002B57D1012342E27B685B683F
:102AB000B3F5803F06D1764B1B68754A43F48033EB
:102AC00013601DE07B685B68B3F5A02F0CD1704BE1
:102AD0001B686F4A43F4802313606D4B1B686C4A7C
:102AE00043F4803313600BE0694B1B68684A23F49E
:102AF00080331360664B1B68654A23F480231360A0
:102B00007B685B68002B13D0FEF73CFA386108E065
:102B1000FEF738FA02463B69D31A642B01D9032326
:102B200007E25B4B1B6803F40033002BF0D014E08A
:102B3000FEF728FA386108E0FEF724FA02463B69FE
:102B4000D31A642B01D90323F3E1514B1B6803F41F
:102B50000033002BF0D100E000BF7B681B6803F05E
:102B60000203002B63D04A4B9B6803F00C03002B3D
:102B70000BD0474B9B6803F00C03082B1CD1444B34
:102B80005B6803F48003002B16D1414B1B6803F0F4
:102B90000203002B05D07B68DB68012B01D00123E9
:102BA000C7E13B4B1B6823F0F8027B681B69DB0025
:102BB000374913430B603AE07B68DB68002B20D079
:102BC000344B01221A60FEF7DDF9386108E0FEF7A8
:102BD000D9F902463B69D31A022B01D90323A8E194
:102BE0002B4B1B6803F00203002BF0D0284B1B6813
:102BF00023F0F8027B681B69DB00254913430B6057
:102C000015E0244B00221A60FEF7BCF9386108E099
:102C1000FEF7B8F902463B69D31A022B01D9032308
:102C200087E11B4B1B6803F00203002BF0D17B688C
:102C30001B6803F00803002B36D07B685B69002B10
:102C400016D0154B01221A60FEF79CF9386108E096
:102C5000FEF798F902463B69D31A022B01D90323E8
:102C600067E10B4B5B6F03F00203002BF0D01BE01E
:102C7000094B00221A60FEF785F938610EE0FEF775
:102C800081F902463B69D31A022B07D9032350E18D
:102C90000038024000004742800E4742884B5B6F7D
:102CA00003F00203002BEAD17B681B6803F00403E6
:102CB000002B00F097800023FB75814B1B6C03F009
:102CC0008053002B0FD10023BB607D4B1B6C7C4AD3
:102CD00043F0805313647A4B1B6C03F08053BB604A
:102CE000BB680123FB75774B1B6803F48073002BD3
:102CF00018D1744B1B68734A43F480731360FEF75A
:102D000041F9386108E0FEF73DF902463B69D31A04
:102D1000022B01D903230CE16A4B1B6803F4807377
:102D2000002BF0D07B689B68012B06D1644B1B6F96
:102D3000634A43F0010313671CE07B689B68052B23
:102D40000CD15F4B1B6F5E4A43F0040313675C4B6F
:102D50001B6F5B4A43F0010313670BE0584B1B6F7B
:102D6000574A23F001031367554B1B6F544A23F056
:102D7000040313677B689B68002B15D0FEF702F9EC
:102D800038610AE0FEF7FEF802463B69D31A41F2C9
:102D90008832934201D90323CBE0494B1B6F03F0E8
:102DA0000203002BEED014E0FEF7ECF838610AE0E5
:102DB000FEF7E8F802463B69D31A41F288329342A3
:102DC00001D90323B5E03E4B1B6F03F00203002B38
:102DD000EED1FB7D012B05D1394B1B6C384A23F01A
:102DE000805313647B689B69002B00F0A180344BF7
:102DF0009B6803F00C03082B5CD07B689B69022B5B
:102E000041D1314B00221A60FEF7BCF8386108E06E
:102E1000FEF7B8F802463B69D31A022B01D9032307
:102E200087E0274B1B6803F00073002BF0D17B6811
:102E3000DA697B681B6A1A437B685B6A9B011A43E9
:102E40007B689B6A5B08013B1B041A437B68DB6A57
:102E50001B061B4913434B601B4B01221A60FEF7F4
:102E600091F8386108E0FEF78DF802463B69D31A05
:102E7000022B01D903235CE0114B1B6803F00073A4
:102E8000002BF0D054E0104B00221A60FEF77AF8C5
:102E9000386108E0FEF776F802463B69D31A022B48
:102EA00001D9032345E0064B1B6803F00073002B98
:102EB000F0D13DE07B689B69012B07D1012338E00D
:102EC0000038024000700040600047421B4B5B68C6
:102ED000FB607B689B69012B28D0FB6803F48002B0
:102EE0007B68DB699A4221D1FB6803F03F027B6873
:102EF0001B6A9A421AD1FA6847F6C07313407A687F
:102F0000526A9201934211D1FB6803F440327B680C
:102F10009B6A5B08013B1B049A4207D1FB6803F0E4
:102F200070627B68DB6A1B069A4201D0012300E0D5
:102F3000002318461837BD4680BD00BF0038024048
:102F400080B584B000AF786039607B68002B01D118
:102F50000123CCE0684B1B6803F007033A689A42F0
:102F60000CD9654B3A68D2B21A70634B1B6803F0F8
:102F700007033A689A4201D00123B8E07B681B68D6
:102F800003F00203002B20D07B681B6803F00403CE
:102F9000002B05D0594B9B68584A43F4E05393608B
:102FA0007B681B6803F00803002B05D0534B9B681C
:102FB000524A43F460439360504B9B6823F0F00205
:102FC0007B689B684D4913438B607B681B6803F0EB
:102FD0000103002B44D07B685B68012B07D1474B72
:102FE0001B6803F40033002B19D101237FE07B68B9
:102FF0005B68022B03D07B685B68032B07D13F4BD8
:103000001B6803F00073002B09D101236FE03B4BD9
:103010001B6803F00203002B01D1012367E0374B4B
:103020009B6823F003027B685B68344913438B6021
:10303000FDF7A8FFF8600AE0FDF7A4FF0246FB6871
:10304000D31A41F28832934201D903234FE02B4B2C
:103050009B6803F00C027B685B689B009A42EBD193
:10306000254B1B6803F007033A689A420CD2224BA7
:103070003A68D2B21A70204B1B6803F007033A6813
:103080009A4201D0012332E07B681B6803F00403FD
:10309000002B08D0194B9B6823F4E0527B68DB6857
:1030A000164913438B607B681B6803F00803002BF1
:1030B00009D0124B9B6823F460427B681B69DB00DC
:1030C0000E4913438B6000F021F802460B4B9B68BE
:1030D0001B0903F00F030A49CB5C22FA03F3094AE8
:1030E0001360094B1B681846FDF708FF00231846BC
:1030F0001037BD4680BD00BF003C02400038024092
:10310000C0C8000800000020040000202DE9B04FD6
:1031100090B000AF00237B630023FB6300233B637D
:103120000023BB63594B9B6803F00C03082B0DD0A5
:10313000082B00F2A180002B02D0042B03D09BE0CF
:10314000534BBB639BE0534BBB6398E04F4B5B68B7
:1031500003F03F037B634D4B5B6803F48003002B5C
:1031600028D04A4B5B689B0900223B627A623B6A2B
:10317000C3F308000021474B03FB01F2002300FBCF
:1031800003F31344434AA0FB0212FA620A46BA62EE
:10319000FA6A1344FB627B6B0022BB61FA61D7E9D8
:1031A0000623D7E90A01FDF773F802460B461346DA
:1031B000FB6353E0354B5B689B0900223B617A61FE
:1031C0003B69C3F3080A4FF0000B52465B464FF0D1
:1031D00000004FF00001590141EAD261500102465E
:1031E0000B46B2EB0A0863EB0B094FF000024FF0FD
:1031F00000034FEA891343EA98634FEA8812B2EB5F
:10320000080463EB09054FF000024FF00003EB00E8
:1032100043EA5473E20014461D4614EB0A033B6074
:1032200045EB0B037B604FF000024FF00003D7E942
:10323000004529468B02214643EA915321468A02E2
:10324000104619467B6B0022BB60FA60D7E9022367
:10325000FDF71EF802460B461346FB630B4B5B68FB
:103260001B0C03F0030301335B003B63FA6B3B6B06
:10327000B2FBF3F3BB6302E0054BBB6300BFBB6B68
:1032800018464037BD46BDE8B08F00BF0038024049
:103290000024F40040787D0180B400AF034B1B682C
:1032A0001846BD465DF8047B704700BF0000002053
:1032B00080B500AFFFF7F0FF0246054B9B689B0A05
:1032C00003F007030349CB5C22FA03F3184680BDE1
:1032D00000380240D0C8000880B500AFFFF7DCFF1F
:1032E0000246054B9B685B0B03F007030349CB5C6D
:1032F00022FA03F3184680BD00380240D0C8000807
:1033000080B582B000AF78607B68002B01D10123CB
:103310007BE07B685B6A002B08D17B685B68B3F558
:10332000827F09D07B680022DA6105E07B68002299
:103330001A617B6800225A617B6800229A627B686E
:1033400093F85130DBB2002B06D17B68002283F862
:1033500050207868FDF7F2FA7B68022283F851204A
:103360007B681B681A687B681B6822F040021A6041
:103370007B685B6803F482727B689B6803F4044398
:103380001A437B68DB6803F400631A437B681B699C
:1033900003F002031A437B685B6903F001031A43DD
:1033A0007B689B6903F400731A437B68DB6903F055
:1033B00038031A437B681B6A03F0800342EA030167
:1033C0007B689B6A03F400527B681B680A431A609F
:1033D0007B689B691B0C03F004017B685B6A03F04C
:1033E00010027B681B680A435A607B681B68DA69B5
:1033F0007B681B6822F40062DA617B6800225A65F0
:103400007B68012283F85120002318460837BD4607
:1034100080BD80B582B000AF78607B68002B01D1A1
:10342000012341E07B6893F83D30DBB2002B06D1ED
:103430007B68002283F83C207868FDF741FC7B68BC
:10344000022283F83D207B681A687B6804331946A2
:10345000104600F09FF97B68012283F846207B68C4
:10346000012283F83E207B68012283F83F207B689D
:10347000012283F840207B68012283F841207B6889
:10348000012283F842207B68012283F843207B6875
:10349000012283F844207B68012283F845207B6861
:1034A000012283F83D20002318460837BD4680BD21
:1034B00080B584B000AF786039603B68002B09D1DB
:1034C0007B6893F83E30DBB2012B14BF012300234D
:1034D000DBB222E03B68042B09D17B6893F83F30D4
:1034E000DBB2012B14BF01230023DBB215E03B68E4
:1034F000082B09D17B6893F84030DBB2012B14BF55
:1035000001230023DBB208E07B6893F84130DBB293
:10351000012B14BF01230023DBB2002B01D00123B8
:1035200068E03B68002B04D17B68022283F83E20D0
:1035300013E03B68042B04D17B68022283F83F2010
:103540000BE03B68082B04D17B68022283F8402003
:1035500003E07B68022283F841207B681B6801221C
:103560003968184600F028FB7B681B68234A9342A1
:1035700007D17B681B685A6C7B681B6842F4004269
:103580005A647B681B681D4A934218D07B681B688D
:10359000B3F1804F13D07B681B68194A93420ED059
:1035A0007B681B68174A934209D07B681B68164AE0
:1035B000934204D07B681B68144A934211D17B6804
:1035C0001B689B6803F00703FB60FB68062B10D0A9
:1035D0007B681B681A687B681B6842F001021A60EE
:1035E00007E07B681B681A687B681B6842F0010271
:1035F0001A60002318461037BD4680BD0000014008
:103600000004004000080040000C00400040014061
:1036100080B586B000AFF860B9607A600023FB75B2
:10362000FB6893F83C30012B01D10223AEE0FB682C
:10363000012283F83C207B680C2B00F29F8001A2C2
:1036400052F823F0793600087D3700087D370008EE
:103650007D370008B93600087D3700087D3700083F
:103660007D370008FB3600087D3700087D370008ED
:103670007D3700083B370008FB681B68B9681846AF
:1036800000F00EF9FB681B689A69FB681B6842F042
:1036900008029A61FB681B689A69FB681B6822F044
:1036A00004029A61FB681B689969BB681A69FB6828
:1036B0001B680A439A6164E0FB681B68B968184696
:1036C00000F054F9FB681B689A69FB681B6842F4B8
:1036D00000629A61FB681B689A69FB681B6822F4A8
:1036E00080629A61FB681B689969BB681B691A0252
:1036F000FB681B680A439A6143E0FB681B68B96872
:10370000184600F09FF9FB681B68DA69FB681B68C4
:1037100042F00802DA61FB681B68DA69FB681B6823
:1037200022F00402DA61FB681B68D969BB681A6978
:10373000FB681B680A43DA6123E0FB681B68B96811
:10374000184600F0E9F9FB681B68DA69FB681B683A
:1037500042F40062DA61FB681B68DA69FB681B6887
:1037600022F48062DA61FB681B68D969BB681B6957
:103770001A02FB681B680A43DA6102E00123FB7549
:1037800000BFFB68002283F83C20FB7D18461837F9
:10379000BD4680BD80B485B000AF786039607B687D
:1037A0001B68FB607B68374A93420FD07B68B3F19C
:1037B000804F0BD07B68344A934207D07B68334AF2
:1037C000934203D07B68324A934208D1FB6823F0CE
:1037D0007003FB603B685B68FA681343FB607B68BF
:1037E000284A93421BD07B68B3F1804F17D07B6887
:1037F000254A934213D07B68244A93420FD07B68BA
:10380000234A93420BD07B68224A934207D07B68BD
:10381000214A934203D07B68204A934208D1FB6837
:1038200023F44073FB603B68DB68FA681343FB607A
:10383000FB6823F080023B685B691343FB603B68D5
:103840009A687B68DA623B681A687B689A627B6870
:103850000C4A934203D13B681A697B681A637B6800
:103860001B6843F004027B681A607B6801225A617E
:103870007B68FA681A6000BF1437BD465DF8047BA8
:10388000704700BF000001400004004000080040F5
:10389000000C00400040014000440140004801404D
:1038A00080B487B000AF786039607B681B6A7B6149
:1038B0007B681B6A23F001027B681A627B685B6885
:1038C0003B617B689B69FB60FB6823F07003FB60D6
:1038D000FB6823F00303FB603B681B68FA68134333
:1038E000FB607B6923F002037B613B689B687A691C
:1038F00013437B617B681C4A93420CD17B6923F0A4
:1039000008037B613B68DB687A6913437B617B69F1
:1039100023F004037B617B68134A934211D13B6916
:1039200023F480733B613B6923F400733B613B6884
:103930005B693A6913433B613B689B693A6913438E
:103940003B617B683A695A607B68FA689A613B68B8
:103950005A687B685A637B687A691A6200BF1C37B1
:10396000BD465DF8047B70470000014080B487B01D
:1039700000AF786039607B681B6A7B617B681B6A7B
:1039800023F010027B681A627B685B683B617B688E
:103990009B69FB60FB6823F4E043FB60FB6823F456
:1039A0004073FB603B681B681B02FA681343FB60B3
:1039B0007B6923F020037B613B689B681B017A696C
:1039C00013437B617B681E4A93420DD17B6923F0D0
:1039D00080037B613B68DB681B017A6913437B6171
:1039E0007B6923F040037B617B68154A934213D1C6
:1039F0003B6923F480633B613B6923F400633B61D3
:103A00003B685B699B003A6913433B613B689B6978
:103A10009B003A6913433B617B683A695A607B6853
:103A2000FA689A613B685A687B689A637B687A692E
:103A30001A6200BF1C37BD465DF8047B704700BFAB
:103A40000000014080B487B000AF786039607B68C7
:103A50001B6A7B617B681B6A23F480727B681A6235
:103A60007B685B683B617B68DB69FB60FB6823F01C
:103A70007003FB60FB6823F00303FB603B681B687B
:103A8000FA681343FB607B6923F400737B613B6836
:103A90009B681B027A6913437B617B681D4A9342D2
:103AA0000DD17B6923F400637B613B68DB681B02FB
:103AB0007A6913437B617B6923F480637B617B6854
:103AC000144A934213D13B6923F480533B613B6911
:103AD00023F400533B613B685B691B013A69134364
:103AE0003B613B689B691B013A6913433B617B68FF
:103AF0003A695A607B68FA68DA613B685A687B68A1
:103B0000DA637B687A691A6200BF1C37BD465DF8CC
:103B1000047B70470000014080B487B000AF78603C
:103B200039607B681B6A3B617B681B6A23F48052A7
:103B30007B681A627B685B687B617B68DB69FB6022
:103B4000FB6823F4E043FB60FB6823F44073FB60F5
:103B50003B681B681B02FA681343FB603B6923F454
:103B600000533B613B689B681B033A6913433B610D
:103B70007B68104A934209D17B6923F480437B61BF
:103B80003B685B699B017A6913437B617B687A6957
:103B90005A607B68FA68DA613B685A687B681A6425
:103BA0007B683A691A6200BF1C37BD465DF8047B2A
:103BB000704700BF0000014080B487B000AFF860DC
:103BC000B9607A60BB6803F01F03012202FA03F3B5
:103BD0007B61FB681A6A7B69DB431A40FB681A62E7
:103BE000FB681A6ABB6803F01F03796801FA03F3E4
:103BF0001A43FB681A6200BF1C37BD465DF8047BA0
:103C00007047000080B485B000AF786039607B6891
:103C100093F83C30012B01D1022350E07B68012254
:103C200083F83C207B68022283F83D207B681B6878
:103C30005B68FB607B681B689B68BB60FB6823F06C
:103C40007003FB603B681B68FA681343FB607B688A
:103C50001B68FA685A607B681B681C4A934218D03C
:103C60007B681B68B3F1804F13D07B681B68184AD0
:103C700093420ED07B681B68164A934209D07B683A
:103C80001B68154A934204D07B681B68134A934211
:103C90000CD1BB6823F08003BB603B685B68BA68EB
:103CA0001343BB607B681B68BA689A607B6801221B
:103CB00083F83D207B68002283F83C2000231846CF
:103CC0001437BD465DF8047B704700BF000001401B
:103CD0000004004000080040000C0040004001408B
:103CE00080B582B000AF78607B68002B01D10123E2
:103CF00042E07B6893F84130DBB2002B06D17B6851
:103D0000002283F840207868FDF764F87B6824225D
:103D100083F841207B681B68DA687B681B6822F4A3
:103D20000052DA60786800F02BF87B681B681A692B
:103D30007B681B6822F490421A617B681B685A6991
:103D40007B681B6822F02A025A617B681B68DA686C
:103D50007B681B6842F40052DA607B6800225A6478
:103D60007B68202283F841207B68202283F8422050
:103D70007B6800225A63002318460837BD4680BD81
:103D80002DE9B04FC0B000AFC7F8F400D7F8F43059
:103D90001B681B6923F44050D7F8F430D968D7F872
:103DA000F4301A6840EA01031361D7F8F4309A68D6
:103DB000D7F8F4301B691A43D7F8F4305B691A431B
:103DC000D7F8F430DB691343C7F8F830D7F8F4308C
:103DD0001B68DB6823F4164121F00C01D7F8F4309E
:103DE0001A68D7F8F8300B43D360D7F8F4301B6863
:103DF0005B6923F44070D7F8F4309969D7F8F43050
:103E00001A6840EA01035361D7F8F4301A688F4BFF
:103E10009A4205D0D7F8F4301A688D4B9A4204D1F3
:103E2000FFF75AFAC7F8FC0003E0FFF741FAC7F8BA
:103E3000FC00D7F8F430DB69B3F5004F40F00C819B
:103E4000D7F8FC300022C7F8E830C7F8EC20D7E9F3
:103E50003A4522462B469118B9655B41FB65D7E987
:103E60001623214612EB0108294643EB01094FF0C6
:103E700000024FF000034FEAC90343EA58734FEAC8
:103E8000C80290469946234618EB0303C7F8E03072
:103E90002B4649EB0303C7F8E430D7F8F4305B68EE
:103EA0000022C7F8D830C7F8DC20D7E936120B4615
:103EB000DB183B65134642EB03037B65D7E914230C
:103EC000D7E93801FCF7E4F902460B46614BA3FB46
:103ED00002235B091C01D7F8FC300022C7F8D03060
:103EE000C7F8D420D7E9348942464B469118B964C3
:103EF0005B41FB64D7E91223414612EB010A4946B4
:103F000043EB010B4FF000024FF000034FEACB03ED
:103F100043EA5A734FEACA0292469B4643461AEB5B
:103F20000303C7F8C8304B464BEB0303C7F8CC304C
:103F3000D7F8F4305B680022C7F8C030C7F8C42057
:103F4000D7E930120B46DB183B64134642EB030300
:103F50007B64D7E91023D7E93201FCF799F90246CF
:103F60000B4611463B4BA3FB01235B09642202FB7A
:103F700003F3CB1ADB0003F13202364BA3FB02231F
:103F80005B095B0003F4F8731C44D7F8FC30002293
:103F9000C7F8B830C7F8BC20D7E92E8942464B464F
:103FA0009118B9635B41FB63D7E90E234146511871
:103FB000396349464B417B634FF000024FF00003E9
:103FC000D7E90CAB5946CB00514643EA51735146F1
:103FD000CA0010461946034642469B18C7F8B0303F
:103FE0004B460A4642EB0303C7F8B430D7F8F43027
:103FF0005B680022C7F8A830C7F8AC20D7E92A12BE
:104000000B46DB18BB62134642EB0303FB62D7E9A6
:104010000A23D7E92C01FCF73BF902460B460D4B6E
:10402000A3FB02135B09642101FB03F3D31ADB003A
:104030003233084AA2FB03235B0903F00702D7F8D7
:10404000F4301B6822449A6006E100BF0010014072
:10405000001401401F85EB51D7F8FC300022C7F84F
:10406000A030C7F8A420D7E9288942464B469118CA
:1040700039625B417B62D7E90823414654184946BF
:1040800043EB01054FF000024FF00003EB0043EA61
:104090005473E20014461D464346E318C7F89830AF
:1040A0004B4645EB0303C7F89C30D7F8F4305B6808
:1040B0000022C7F89030C7F894204FF000024FF06C
:1040C0000003D7E9244529468B00214643EA917332
:1040D00021468A00D7E92601FCF7DAF802460B46AA
:1040E000604BA3FB02235B091C01D7F8FC300022C4
:1040F000C7F88830C7F88C20D7E9228942464B465A
:104100009118B9615B41FB61D7E90623414651181B
:10411000396149464B417B614FF000024FF000038B
:10412000D7E904AB5946CB00514643EA5173514697
:10413000CA0010461946034642469B18C7F880300D
:104140004B460A4642EB0303C7F88430D7F8F430F5
:104150005B680022BB67FA674FF000024FF0000374
:10416000D7E91E8949468B00414643EA917341468F
:104170008A00D7E92001FCF78BF802460B4611466E
:10418000384BA3FB01235B09642202FB03F3CB1A28
:104190001B013233334AA2FB03235B0903F0F00314
:1041A0001C44D7F8FC3000223B677A67D7E91C89AA
:1041B00042464B469118B9605B41FB60D7E9022348
:1041C00041465118396049464B417B604FF000022F
:1041D0004FF00003D7E900AB5946CB00514643EA04
:1041E00051735146CA0010461946034642469B1871
:1041F000BB664B460A4642EB0303FB66D7F8F43036
:104200005B6800223B667A664FF000024FF00003C5
:10421000D7E9188949468B00414643EA91734146E4
:104220008A00D7E91A01FCF733F802460B460D4B1A
:10423000A3FB02135B09642101FB03F3D31A1B01E7
:104240003233084AA2FB03235B0903F00F02D7F8BD
:10425000F4301B6822449A6000BF07F58077BD46A2
:10426000BDE8B08F1F85EB5184B080B584B000AF3E
:10427000786007F11C0080E80E0097F82130012BD0
:1042800023D17B689B6B23F480327B689A637B68C5
:10429000DB6823F4840323F040037A68D3607B68EF
:1042A000DB6823F440127B68DA6097F82830012B32
:1042B00005D17B68DB6843F480127B68DA6078683C
:1042C00001F0E8FA0346FB731BE07B68DB6843F010
:1042D00040027B68DA60786801F0DCFA0346FB7321
:1042E00097F82530002B06D17B689B6B43F4803216
:1042F0007B689A6305E07B689B6B23F480327B6864
:104300009A63BB7F012B0BD17B689B6843F006024D
:104310007B689A607B689B6843F020027B689A60A8
:10432000FB7B18461037BD46BDE8804004B070479F
:1043300080B487B000AFF860B9601346FB71FB79B9
:10434000022B65D1BB68414A934206D9BB68404AFB
:10435000934202D20F237B6162E0BB683C4A9342E6
:1043600006D3BB683B4A934202D20E237B6157E0DF
:10437000BB68384A934206D3BB68374A934202D29D
:104380000D237B614CE0BB68334A934206D3BB6884
:10439000324A934202D80C237B6141E0BB682F4A2A
:1043A000934206D9BB682E4A934202D80B237B6105
:1043B00036E0BB682A4A934206D9BB68294A934231
:1043C00002D80A237B612BE0BB68264A934206D9B8
:1043D000BB68254A934202D209237B6120E0BB6877
:1043E000214A934206D3BB68204A934202D808234D
:1043F0007B6115E0BB681D4A934206D9BB681C4A25
:10440000934202D207237B610AE006237B6107E027
:10441000FB79002B02D109237B6101E009237B6139
:10442000FB68DB6823F47052FB68DA60FB68DA68CB
:104430007B699B0203F470531A43FB68DA60002324
:1044400018461C37BD465DF8047B7047BFACD800EA
:10445000C0E1E4000024F400807306019F491A01C2
:10446000FF2C31013FA44C0100366E011FABA601A9
:104470000048E80180B483B000AF78607B689B6837
:1044800043F001027B689A60002318460C37BD4652
:104490005DF8047B704780B483B000AF78607B68C0
:1044A0009B6823F001027B689A60002318460C3752
:1044B000BD465DF8047B704780B584B000AF78607E
:1044C0000B46FB700023FB607B68DB6823F0C04277
:1044D0007B68DA60FB78012B15D17B68DB6843F0E1
:1044E00000527B68DA600A20FCF758FDFB680A334B
:1044F000FB60786801F03FF90346012B1ED0FB6892
:10450000C72BF0D91AE0FB78002B15D17B68DB684C
:1045100043F080427B68DA600A20FCF73FFDFB68CD
:104520000A33FB60786801F026F90346002B05D0BA
:10453000FB68C72BF0D901E0012305E0FB68C82B1D
:1045400001D1012300E0002318461037BD4680BD8D
:1045500084B080B586B000AF786007F1240080E8B1
:104560000E000023FB757B68FB6000233B6109E0C4
:104570007A683B6940339B00134400225A603B69D0
:1045800001333B613B690E2BF2D997F82E30002B9B
:104590001CD1FB6803F500635B68FA6802F50062F2
:1045A00043F0020353607B689B6B43F400127B680B
:1045B0009A637B689B6B23F400227B689A637B6819
:1045C0009B6B23F480227B689A630BE07B689B6B78
:1045D00023F400127B689A637B689B6B43F4002290
:1045E0007B689A63FB6803F560631A4600231360D7
:1045F00097F82930012B0DD197F82730002B04D1E3
:104600000021786800F068F908E00121786800F07E
:1046100063F903E00321786800F05EF910217868FF
:1046200000F0FAF80346002B01D00123FB757868EF
:1046300000F024F90346002B01D00123FB75FB6831
:1046400003F500631A4600231361FB6803F500635A
:104650001A4600235361FB6803F500631A460023E2
:10466000D36100233B6143E03B695A01FB6813447B
:1046700003F510631B6803F00043B3F1004F18D13A
:104680003B69002B0AD13B695A01FB68134403F5CF
:1046900010631A464FF00063136013E03B695A0140
:1046A000FB68134403F510631A464FF09043136000
:1046B00008E03B695A01FB68134403F510631A468E
:1046C000002313603B695A01FB68134403F5106330
:1046D0001A46002313613B695A01FB68134403F532
:1046E00010631A464FF67F3393603B6901333B6199
:1046F00097F824301A463B699342B5D300233B61B7
:1047000043E03B695A01FB68134403F530631B68BF
:1047100003F00043B3F1004F18D13B69002B0AD1DD
:104720003B695A01FB68134403F530631A464FF0A6
:104730000063136013E03B695A01FB68134403F5FF
:1047400030631A464FF09043136008E03B695A010A
:10475000FB68134403F530631A46002313603B697A
:104760005A01FB68134403F530631A4600231361B2
:104770003B695A01FB68134403F530631A464FF650
:104780007F3393603B6901333B6197F824301A46CD
:104790003B699342B5D3FB6803F500631B69FA6874
:1047A00002F5006223F4807313617B6800229A6132
:1047B0007B686FF080425A6197F82630002B05D154
:1047C0007B689B6943F010027B689A617B689A69F9
:1047D000104B13437A68936197F82A30002B05D069
:1047E0007B689B6943F008027B689A6197F82E30DA
:1047F000012B07D17B689B6943F0804343F004039E
:104800007A689361FB7D18461837BD46BDE8804045
:1048100004B0704700383C8080B485B000AF786049
:1048200039600023FB60FB680133FB60FB68B3F178
:10483000706F01D903231BE07B681B69002BF2DA40
:104840000023FB603B689B0143F020027B681A61F8
:10485000FB680133FB60FB68B3F1706F01D9032380
:1048600006E07B681B6903F02003202BF0D00023B7
:1048700018461437BD465DF8047B704780B485B098
:1048800000AF78600023FB60FB680133FB60FB68CE
:10489000B3F1706F01D9032318E07B681B69002B0B
:1048A000F2DA0023FB607B6810221A61FB68013397
:1048B000FB60FB68B3F1706F01D9032306E07B68EE
:1048C0001B6903F01003102BF0D000231846143797
:1048D000BD465DF8047B704780B485B000AF78605A
:1048E0000B46FB707B68FB60FB6803F500631A688E
:1048F000FB78F96801F5006113430B60002318464B
:104900001437BD465DF8047B704780B487B000AFB4
:1049100078607B683B613B6903F500639B6803F04B
:104920000603FB60FB68002B02D10023FB750AE045
:10493000FB68022B02D0FB68062B02D10223FB7519
:1049400001E00F23FB75FB7D18461C37BD465DF863
:10495000047B704780B485B000AF786039607B68B5
:10496000FB603B681B78BB603B685B78012B3AD1EE
:10497000FB6803F50063DA693B681B7803F00F03FB
:10498000012101FA03F39BB2F96801F500611343B9
:10499000CB61BB685A01FB68134403F510631B68C5
:1049A00003F40043002B55D1BB685A01FB68134444
:1049B00003F510631A683B689B68C3F30A013B6800
:1049C0001B799B041943BB689B050B431343BA68CF
:1049D0005101FA680A4402F5106243F0805343F42F
:1049E0000043136036E0FB6803F50063DA693B6857
:1049F0001B7803F00F03012101FA03F31B04F9688C
:104A000001F500611343CB61BB685A01FB68134495
:104A100003F530631B6803F40043002B1AD1BB6815
:104A20005A01FB68134403F530631A683B689B68BE
:104A3000C3F30A013B681B799B040B431343BA6819
:104A40005101FA680A4402F5306243F0805343F49E
:104A500000431360002318461437BD465DF8047BFD
:104A60007047000080B485B000AF786039607B6823
:104A7000FB603B681B78BB603B685B78012B61D1B6
:104A8000BB685A01FB68134403F510631B6803F00D
:104A90000043B3F1004F1FD1BB685A01FB681344B8
:104AA00003F510631B68BA685101FA680A4402F5FD
:104AB000106243F000631360BB685A01FB68134443
:104AC00003F510631B68BA685101FA680A4402F5DD
:104AD000106243F080431360FB6803F50063DA6BF8
:104AE0003B681B7803F00F03012101FA03F39BB22B
:104AF000DB43F96801F500611340CB63FB6803F504
:104B00000063DA693B681B7803F00F03012101FAA7
:104B100003F39BB2DB43F96801F500611340CB61FD
:104B2000BB685A01FB68134403F510631A68BB683D
:104B30005901FB680B4403F510631946354B1340CC
:104B40000B6060E0BB685A01FB68134403F53063F7
:104B50001B6803F00043B3F1004F1FD1BB685A013B
:104B6000FB68134403F530631B68BA685101FA68A7
:104B70000A4402F5306243F000631360BB685A01D7
:104B8000FB68134403F530631B68BA685101FA6887
:104B90000A4402F5306243F080431360FB6803F57A
:104BA0000063DA6B3B681B7803F00F03012101FA05
:104BB00003F31B04DB43F96801F500611340CB6389
:104BC000FB6803F50063DA693B681B7803F00F03A9
:104BD000012101FA03F31B04DB43F96801F50061CD
:104BE0001340CB61BB685A01FB68134403F5306383
:104BF0001A68BB685901FB680B4403F5306319461A
:104C0000054B13400B60002318461437BD465DF872
:104C1000047B7047007833EC0078F3EF80B58AB0FE
:104C200002AFF860B9601346FB71FB68FB61BB68BB
:104C30001B78BB61BB685B78012B40F07F81BB6850
:104C40001B69002B32D1BB695A01FB69134403F580
:104C500010631B69BA695101FA690A4402F51062CE
:104C600023F0FF5323F4C0131361BB695A01FB699E
:104C7000134403F510631B69BA695101FA690A44C8
:104C800002F5106243F400231361BB695A01FB690A
:104C9000134403F510631B69BA695101FA690A44A8
:104CA00002F51062DB0CDB04136197E0BB695A016B
:104CB000FB69134403F510631B69BA695101FA6972
:104CC0000A4402F51062DB0CDB041361BB695A0174
:104CD000FB69134403F510631B69BA695101FA6952
:104CE0000A4402F5106223F0FF5323F4C01313614A
:104CF000BB69002B1AD1BB681A69BB689B689A42D2
:104D000003D9BB689A68BB681A61BB695A01FB6921
:104D1000134403F510631B69BA695101FA690A4427
:104D200002F5106243F40023136144E0BB681A6982
:104D3000BB689B6813445A1EBB689B68B2FBF3F3C5
:104D4000FB82BB695A01FB69134403F510631A69BE
:104D5000FB8AD904A44B0B40B9694801F9690144A5
:104D600001F5106113430B61BB681B79012B22D144
:104D7000BB695A01FB69134403F510631B69BA69E7
:104D80005101FA690A4402F5106223F0C04313612D
:104D9000BB695A01FB69134403F510631A69FB8A66
:104DA0005B0703F0C043B9694801F969014401F5A3
:104DB000106113430B61BB695A01FB69134403F58E
:104DC00010631A69BB681B69C3F31203B969480110
:104DD000F969014401F5106113430B61FB79012B63
:104DE0004BD1BB68DB69002B09D0BB695A01FB6959
:104DF000134403F510631A46BB68DB695361BB6853
:104E00001B79012B28D1FB6903F500639B6803F430
:104E10008073002B10D1BB695A01FB69134403F561
:104E200010631B68BA695101FA690A4402F51062FD
:104E300043F0005313600FE0BB695A01FB69134450
:104E400003F510631B68BA695101FA690A4402F557
:104E5000106243F080531360BB695A01FB6913442D
:104E600003F510631B68BA695101FA690A4402F537
:104E7000106243F00443136066E1BB695A01FB69A9
:104E8000134403F510631B68BA695101FA690A44B7
:104E900002F5106243F004431360BB681B79012BD9
:104EA00015D0BB681B69002B00F04E81FB6903F530
:104EB00000635A6BBB681B7803F00F03012101FAF2
:104EC00003F3F96901F5006113434B633CE1FB69AE
:104ED00003F500639B6803F48073002B10D1BB695A
:104EE0005A01FB69134403F510631B68BA69510149
:104EF000FA690A4402F5106243F0005313600FE0B0
:104F0000BB695A01FB69134403F510631B68BA6956
:104F10005101FA690A4402F5106243F080531360AC
:104F2000BB68D968BB681A78BB681B6998B2FB7903
:104F300000930346F86800F0B9F905E1BB695A012E
:104F4000FB69134403F530631B69BA695101FA69BF
:104F50000A4402F53062DB0CDB041361BB695A01C1
:104F6000FB69134403F530631B69BA695101FA699F
:104F70000A4402F5306223F0FF5323F4C013136197
:104F8000BB69002B32D1BB681B69002B03D0BB6807
:104F90009A68BB681A61BB689A68BB681A62BB6989
:104FA0005A01FB69134403F530631A69BB681B6A35
:104FB000C3F31203B9694801F969014401F530618D
:104FC00013430B61BB695A01FB69134403F530635A
:104FD0001B69BA695101FA690A4402F5306243F467
:104FE0000023136162E000BF0000F81FBB681B696B
:104FF000002B23D1BB695A01FB69134403F53063CD
:105000001A69BB689B68C3F31203B9694801F9695F
:10501000014401F5306113430B61BB695A01FB691F
:10502000134403F530631B69BA695101FA690A44F4
:1050300002F5306243F40023136137E0BB681A695C
:10504000BB689B6813445A1EBB689B68B2FBF3F3B2
:10505000FB82BB689B68FA8A03FB02F2BB681A6298
:10506000BB695A01FB69134403F530631A69FB8A73
:10507000D904384B0B40B9694801F969014401F57D
:10508000306113430B61BB695A01FB69134403F59B
:1050900030631A69BB681B6AC3F31203B96948011C
:1050A000F969014401F5306113430B61FB79012B70
:1050B0000DD1BB68DB68002B09D0BB68D968BB6920
:1050C0005A01FB69134403F530630A465A61BB6811
:1050D0001B79012B28D1FB6903F500639B6803F45E
:1050E0008073002B10D1BB695A01FB69134403F58F
:1050F00030631B68BA695101FA690A4402F53062EB
:1051000043F0005313600FE0BB695A01FB6913447D
:1051100003F530631B68BA695101FA690A4402F564
:10512000306243F080531360BB695A01FB6913443A
:1051300003F530631B68BA695101FA690A4402F544
:10514000306243F004431360002318462037BD4605
:1051500080BD00BF0000F81F80B487B000AF78604A
:1051600039600023FB600023FB757B683B613B6873
:105170005B78012B4AD13B681B785A013B69134489
:1051800003F510631B6803F00043B3F1004F40F0D8
:1051900086803B681B785A013B69134403F5106312
:1051A0001B683A68127851013A690A4402F51062A4
:1051B00043F0006313603B681B785A013B6913445A
:1051C00003F510631B683A68127851013A690A4482
:1051D00002F5106243F080431360FB680133FB600B
:1051E000FB6842F21072934202D90123FB7556E02C
:1051F0003B681B785A013B69134403F510631B6835
:1052000003F00043B3F1004FE7D048E03B681B7860
:105210005A013B69134403F530631B6803F00043F4
:10522000B3F1004F3BD13B681B785A013B691344F3
:1052300003F530631B683A68127851013A690A44F1
:1052400002F5306243F0006313603B681B785A013B
:105250003B69134403F530631B683A6812785101C7
:105260003A690A4402F5306243F080431360FB68F8
:105270000133FB60FB6842F21072934202D90123B2
:10528000FB750CE03B681B785A013B69134403F53E
:1052900030631B6803F00043B3F1004FE7D0FB7DA0
:1052A00018461C37BD465DF8047B704780B489B052
:1052B00000AFF860B96011461A460B46FB71134601
:1052C000BB80FB687B61BB68FB6197F82830002BD3
:1052D00023D1BB8803339B083B610023BB6118E0EB
:1052E000FB791A037B69134403F580531A46FB6963
:1052F0001B681360FB690133FB61FB690133FB61D0
:10530000FB690133FB61FB690133FB61BB6901335D
:10531000BB61BA693B699A42E2D30023184624373D
:10532000BD465DF8047B704780B48BB000AFF86079
:10533000B9601346FB80FB68BB61BB687B62FB887E
:105340009B089BB27B61FB8803F00303FB83002374
:105350003B6214E0BB6903F580531A687B6A1A60EC
:105360007B6A01337B627B6A01337B627B6A013338
:105370007B627B6A01337B623B6A01333B623A6A40
:105380007B699A42E6D3FB8B002B1ED000233B6245
:10539000BB6903F580531A4607F1100312681A60BF
:1053A0003A693B6ADBB2DB0022FA03F3DAB27B6ACA
:1053B0001A703B6A01333B627B6A01337B62FB8B71
:1053C000013BFB83FB8B002BEAD17B6A18462C3711
:1053D000BD465DF8047B704780B485B000AF78604F
:1053E00039607B68FB603B681B78BB603B685B781F
:1053F000012B2CD1BB685A01FB68134403F51063E1
:105400001B68002B12DBBB68002B0FD0BB685A0156
:10541000FB68134403F510631B68BA685101FA680E
:105420000A4402F5106223F080431360BB685A01FE
:10543000FB68134403F510631B68BA685101FA68EE
:105440000A4402F5106243F4001313602BE0BB68BA
:105450005A01FB68134403F530631B68002B12DB11
:10546000BB68002B0FD0BB685A01FB68134403F5DF
:1054700030631B68BA685101FA680A4402F5306269
:1054800023F080431360BB685A01FB68134403F5A3
:1054900030631B68BA685101FA680A4402F5306249
:1054A00043F400131360002318461437BD465DF81B
:1054B000047B704780B485B000AF786039607B684A
:1054C000FB603B681B78BB603B685B78012B28D195
:1054D000BB685A01FB68134403F510631B68BA6884
:1054E0005101FA680A4402F5106223F400131360B4
:1054F0003B681B79032B03D03B681B79022B38D107
:10550000BB685A01FB68134403F510631B68BA6853
:105510005101FA680A4402F5106243F080531360A7
:1055200027E0BB685A01FB68134403F530631B682E
:10553000BA685101FA680A4402F5306223F4001394
:1055400013603B681B79032B03D03B681B79022B4C
:105550000FD1BB685A01FB68134403F530631B6825
:10556000BA685101FA680A4402F5306243F0805388
:105570001360002318461437BD465DF8047B70475E
:1055800080B485B000AF78600B46FB707B68FB6031
:10559000FB6803F500631B68FA6802F5006223F4F8
:1055A000FE631360FB6803F500631A68FB781B0158
:1055B00003F4FE63F96801F5006113430B600023F7
:1055C00018461437BD465DF8047B704780B485B03B
:1055D00000AF78607B68FB60FB6803F560631B6865
:1055E000FA6802F5606223F003031360FB6803F5B9
:1055F00000635B68FA6802F5006223F002035360FF
:10560000002318461437BD465DF8047B704780B40C
:1056100085B000AF78607B68FB60FB6803F5606372
:105620001B68FA6802F5606223F003031360FB68ED
:1056300003F500635B68FA6802F5006243F0020359
:105640005360002318461437BD465DF8047B70474D
:1056500080B485B000AF78607B685B69FB607B6875
:105660009B69FA681340FB60FB6818461437BD4617
:105670005DF8047B704780B485B000AF78607B68CC
:10568000FB60FB6803F500639B69BB60FB6803F587
:105690000063DB69BA681340BB60BB681B0C18462B
:1056A0001437BD465DF8047B704780B485B000AF09
:1056B00078607B68FB60FB6803F500639B69BB60F7
:1056C000FB6803F50063DB69BA681340BB60BB6825
:1056D0009BB218461437BD465DF8047B704780B412
:1056E00085B000AF78600B46FB707B68FB60FB7891
:1056F0005A01FB68134403F530639B68BB60FB6889
:1057000003F500635B69BA681340BB60BB68184669
:105710001437BD465DF8047B704780B487B000AF96
:1057200078600B46FB707B687B617B6903F50063E7
:105730001B693B617B6903F500635B6BFB60FB7876
:1057400003F00F03FA6822FA03F3DB01DBB23A69D4
:1057500013433B61FB785A017B69134403F51063E3
:105760009B683A691340BB60BB6818461C37BD464E
:105770005DF8047B704780B483B000AF78607B68CD
:105780005B6903F0010318460C37BD465DF8047BE6
:10579000704780B485B000AF78607B68FB60FB68C1
:1057A00003F510631B68FA6802F5106223F4FF63C7
:1057B00023F007031360FB6803F500635B68FA6876
:1057C00002F5006243F480735360002318461437D7
:1057D000BD465DF8047B704780B487B000AFF860C9
:1057E0000B467A60FB72FB687B61FB683C330433D9
:1057F0001B683B613B69264A93420AD97B6903F5E2
:1058000030631B6803F00043B3F1004F01D1002364
:1058100037E07B6903F530631A46002313617B6927
:1058200003F530631B697A6902F5306243F40023A3
:1058300013617B6903F530631B697A6902F5306295
:1058400043F0180313617B6903F530631B697A69C0
:1058500002F5306243F0C0431361FB7A012B0FD194
:105860007B6903F530631A467B6853617B6903F5F6
:1058700030631B687A6902F5306243F0802313605D
:10588000002318461C37BD465DF8047B704700BFF7
:105890000A30544F80B485B000AF78600023FB60BD
:1058A000FB680133FB60FB68B3F1706F01D9032320
:1058B00022E07B681B69002BF2DA0A23FB6002E01E
:1058C000FB68013BFB60FB68002BF9D17B681B691F
:1058D00043F001027B681A61FB680133FB60FB68DF
:1058E000B3F1706F01D9032306E07B681B6903F0F5
:1058F0000103012BF0D0002318461437BD465DF894
:10590000047B704780B584B000AF78600B46FB70B5
:105910004FF4077002F0C6FCF860FB68002B09D159
:105920007B68D3F8D4227B68B032002143F8221080
:105930000223D4E04FF407720021F86805F06EFEF0
:105940007B68D3F8D4227B68B032F96843F8221020
:105950007B68D3F8D4227B68B03253F822207B686E
:10596000C3F8BC227B681B7C002B38D15E4B1978B6
:105970004FF400730222786802F071FB5A4B1B78D7
:1059800003F00F02796813469B0013449B000B44FD
:10599000233301221A70554B19784FF400730222F9
:1059A000786802F05CFB514B1B7803F00F027968BA
:1059B00013469B0013449B000B4403F26313012224
:1059C0001A704B4B1B7803F00F02796813469B004B
:1059D00013449B000B441C3310221A6035E0424BE9
:1059E000197840230222786802F039FB3E4B1B787D
:1059F00003F00F02796813469B0013449B000B448D
:105A0000233301221A70394B197840230222786817
:105A100002F025FB354B1B7803F00F027968134623
:105A20009B0013449B000B4403F2631301221A7082
:105A30002F4B1B7803F00F02796813469B00134429
:105A40009B000B441C3310221A60294B1978082341
:105A50000322786802F003FB254B1B7803F00F024A
:105A6000796813469B0013449B000B4423330122A7
:105A70001A70FB680022C3F804227B68D3F8D43282
:105A80007A68B0339B0013445B681B689847FB68D7
:105A90000022C3F81422FB680022C3F81822FB6816
:105AA000D3F80432002B01D1022318E07B681B7C61
:105AB000002B0AD10D4B1978FB68D3F804224FF460
:105AC0000073786802F0BAFB08E0084B1978FB68AD
:105AD000D3F804224023786802F0B0FB0023184674
